:100000002DC10000C1C4000094C4000067C40000FA
:100010003AC400000DC40000E0C30000B3C30000F8
:1000200086C300004BC1000049C1000047C1000069
:1000300045C1000043C1000041C100003FC10000B4
:100040003DC100003BC1000039C1000037C10000C4
:1000500035C1000033C1000031C100000C94F40828
:100060002DC1000037C500000CC5000027C10000ED
:1000700025C1000023C1000021C100001FC10000F4
:100080001DC100001BC1000019C1000017C1000004
:1000900015C1000013C1000011C100000FC1000014
:1000A0000DC100000BC1000009C1000007C1000024
:1000B00005C1000003C1000001C10000FFC0000035
:1000C000FDC00000FBC00000F9C00000F7C0000048
:1000D000F5C00000F3C00000ABC4000080C4000005
:1000E000EDC00000270B410B5B0B5E0B770B860B03
:1000F000890BA306A606950699069D06DD06AA06A7
:10010000AE06B406B806BC06C206C606CA06DD06BA
:10011000D006D406D80629082E0833083D0847081B
:10012000C0085108590861086B0875087F088E08D7
:100130009808C008A208AC08B608000020002300F8
:10014000260029002C002F003200000100000301CE
:100150000601090100002100240027002A002D00CB
:100160003000330001010000040107010A01000012
:100170002200250028002B002E003100340002014F
:100180000000050108010B01050505050705080824
:100190000808020202020A0A080804040404010111
:1001A0000101010101010303030303030303040726
:1001B00007070C0C0C0C0C0C0C0C020202020606BD
:1001C0000606060606060B0B0B0B0B0B0B0B0102B0
:1001D0001020200808102040102040800201020159
:1001E0000804020101020408102040808040201011
:1001F000080402018004020180402010080402016A
:1002000008040201010204081020408001020408D1
:100210001020408000000A0B02090C0D0E08070395
:1002200004010000000000000000000000000000C9
:1002300000000000000000000000000000000000BE
:10024000121110000000000000000000000000007B
:1002500000000000000000000000690D11241FBE16
:10026000CFEFD1E2DEBFCDBF00E00CBF13E0A0E0D6
:10027000B2E0E8EAF1E200E00BBF02C007900D92A5
:10028000A839B107D9F725E0A8E9B3E001C01D926C
:10029000A832B207E1F711E0CEE2D1E000E006C0FB
:1002A00021970109802FFE010E949D0FCD32D107B9
:1002B00080E00807A9F7E2D70C94D210A1CE0895E8
:1002C000CF92DF92EF92FF920F931F93CF93DF9322
:1002D0006C017A018B01C0E0D0E0CE15DF0589F01A
:1002E000D8016D918D01D601ED91FC910190F081C5
:1002F000E02DC6011995892B11F47E0102C02196CB
:10030000ECCFC701DF91CF911F910F91FF90EF903C
:10031000DF90CF900895FC01A089B1898C91A689C6
:10032000B78982FD0FC09C91818D8F5F8F73228D65
:10033000821749F0218DDF01A20FB11D5D969C93BC
:10034000818F08958C910895089580E090E008953C
:10035000FC01538D448D252F30E0842F90E0821BCB
:10036000930B541710F0CF96089501970895FC0150
:10037000918D828D981761F0828DDF01A80FB11DDC
:100380005D968C91928D9F5F9F73928F90E0089500
:100390008FEF9FEF0895FC01918D828D981731F0BA
:1003A000828DE80FF11D858D90E008958FEF9FEF0E
:1003B0000895FC01918D228D892F90E0805C9F4FE4
:1003C000821B91098F73992708958DEB93E0F1DFDC
:1003D00021E0892B09F420E0822F08958AE594E03A
:1003E000E8DF21E0892B09F420E0822F0895FC0149
:1003F000848DDF01A80FB11DA35ABF4F2C91848DAE
:1004000090E001968F739927848FA689B7892C93E2
:10041000A089B1898C9180648C93938D848D98137D
:1004200006C00288F389E02D80818F7D8083089546
:10043000EF92FF920F931F93CF93DF93EC0181E034
:10044000888F9B8D8C8D981305C0E889F9898081F0
:1004500085FD23C0F62E0B8D10E00F5F1F4F0F732D
:100460001127E02E8C8DE8120BC00FB607FCFACFD7
:10047000E889F989808185FFF5CFCE01B8DFF2CF19
:100480008B8DFE01E80FF11DE35AFF4FF0820B8FB9
:10049000EA89FB898081806207C0EE89FF896083D9
:1004A000E889F98980818064808381E090E0DF9130
:1004B000CF911F910F91FF90EF900895CF93DF930D
:1004C000EC01888D8823C1F0EA89FB89808185FD54
:1004D00005C0A889B9898C9186FD0EC00FB607FCAE
:1004E000F5CF808185FFF2CFA889B9898C9185FFEE
:1004F000EDCFCE017CDFE8CFDF91CF91089580E092
:1005000090E0892B19F06ADF811120C080E090E033
:10051000892B41F080E090E0892B21F00E940000BF
:10052000811117C080E090E0892B41F080E090E0DD
:10053000892B21F00E94000081110EC080E090E024
:10054000892B79F042DF81110AC008950E940000D2
:10055000DDCF0E940000E6CF0E940000EFCF0C9498
:1005600000000895E2E1F5E0908181E08927808331
:100570000895823109F466C0B8F4823069F183309D
:1005800009F073C070939B0360939A038DE893E026
:10059000909303028093020280916A00837F8460BB
:1005A00080936A00ED9A5FC0843141F1C8F18531D2
:1005B00009F05BC070939D0360939C0388E893E00F
:1005C0009093050280930402809169008C7F816082
:1005D00080936900E89A47C07093990360939803E9
:1005E00082E993E0909301028093000280916A0077
:1005F0008C7F816080936A00EC9A35C070939F0372
:1006000060939E0383E893E0909307028093060231
:1006100080916900837F846080936900E99A23C098
:100620007093A1036093A0038EE793E09093090277
:1006300080930802809169008F7C806180936900BB
:10064000EA9A11C07093A3036093A20389E793E031
:1006500090930B0280930A02809169008F738064EB
:1006600080936900EB9A81E0089580E00895DC01B1
:10067000ED91FD918081ED91FD919081ED91FD9144
:100680006C9163708E2309F064609F2309F06860A9
:10069000E4E5F3E0E60FF11D659565956D936D91C9
:1006A0007D918D919D91099423C01AC012C016C0EE
:1006B00010C01EC009C014C013C006C019C009C0B4
:1006C0000DC007C00DC014C0625070408040904003
:1006D0000BC0615070408040904006C06E5F01C00A
:1006E0006F5F7F4F8F4F9F4F9E938E937E936E933E
:1006F00008958091A2039091A303B9CF8091A003A4
:100700009091A103B4CF80919E0390919F03AFCFAE
:1007100080919C0390919D03AACF80919A03909120
:100720009B03A5CF8091980390919903A0CF1F922E
:100730000F920FB60F9211240BB60F922F933F9387
:100740004F935F936F937F938F939F93AF93BF93D9
:10075000EF93FF93E0910E02F0910F021995FF9134
:10076000EF91BF91AF919F918F917F916F915F9129
:100770004F913F912F910F900BBE0F900FBE0F9096
:100780001F9018951F920F920FB60F9211240BB65F
:100790000F922F933F934F935F936F937F938F931A
:1007A0009F93AF93BF93EF93FF93E0910C02F0916F
:1007B0000D021995FF91EF91BF91AF919F918F918C
:1007C0007F916F915F914F913F912F910F900BBE51
:1007D0000F900FBE0F901F9018951F920F920FB69B
:1007E0000F9211240BB60F922F933F934F935F9369
:1007F0006F937F938F939F93AF93BF93EF93FF93E9
:10080000E0910202F09103021995FF91EF91BF91DF
:10081000AF919F918F917F916F915F914F913F9198
:100820002F910F900BBE0F900FBE0F901F90189539
:100830001F920F920FB60F9211240BB60F922F93A7
:100840003F934F935F936F937F938F939F93AF9358
:10085000BF93EF93FF93E0910002F091010219958D
:10086000FF91EF91BF91AF919F918F917F916F9188
:100870005F914F913F912F910F900BBE0F900FBE44
:100880000F901F9018951F920F920FB60F92112480
:100890000BB60F922F933F934F935F936F937F937A
:1008A0008F939F93AF93BF93EF93FF93E0910A02CF
:1008B000F0910B021995FF91EF91BF91AF919F912C
:1008C0008F917F916F915F914F913F912F910F90F9
:1008D0000BBE0F900FBE0F901F9018951F920F9296
:1008E0000FB60F9211240BB60F922F933F934F9395
:1008F0005F936F937F938F939F93AF93BF93EF9388
:10090000FF93E0910802F09109021995FF91EF9190
:10091000BF91AF919F918F917F916F915F914F9117
:100920003F912F910F900BBE0F900FBE0F901F9015
:1009300018951F920F920FB60F9211240BB60F92BB
:100940002F933F934F935F936F937F938F939F93D7
:10095000AF93BF93EF93FF93E0910602F0910702EC
:100960001995FF91EF91BF91AF919F918F917F91D9
:100970006F915F914F913F912F910F900BBE0F9010
:100980000FBE0F901F9018951F920F920FB60F92E7
:1009900011240BB60F922F933F934F935F936F9356
:1009A0007F938F939F93AF93BF93EF93FF93E091C8
:1009B0000402F09105021995FF91EF91BF91AF915B
:1009C0009F918F917F916F915F914F913F912F9167
:1009D0000F900BBE0F900FBE0F901F9018951F9297
:1009E0000F920FB60F9211240BB60F922F933F93D5
:1009F0004F935F936F937F938F939F93AF93BF9327
:100A0000EF93FF938DEB93E0F2DCFF91EF91BF91B9
:100A1000AF919F918F917F916F915F914F913F9196
:100A20002F910F900BBE0F900FBE0F901F90189537
:100A30001F920F920FB60F9211240BB60F922F93A5
:100A40003F934F935F936F937F938F939F93AF9356
:100A5000BF93EF93FF938DEB93E05DDCFF91EF91FC
:100A6000BF91AF919F918F917F916F915F914F91C6
:100A70003F912F910F900BBE0F900FBE0F901F90C4
:100A800018951F920F920FB60F9211240BB60F926A
:100A90002F933F934F935F936F937F938F939F9386
:100AA000AF93BF93EF93FF938AE594E0A0DCFF91AF
:100AB000EF91BF91AF919F918F917F916F915F91D6
:100AC0004F913F912F910F900BBE0F900FBE0F9043
:100AD0001F9018951F920F920FB60F9211240BB60C
:100AE0000F922F933F934F935F936F937F938F93C7
:100AF0009F93AF93BF93EF93FF938AE594E00BDC52
:100B0000FF91EF91BF91AF919F918F917F916F91E5
:100B10005F914F913F912F910F900BBE0F900FBEA1
:100B20000F901F901895CF92DF92EF92FF92CF9384
:100B3000DF93EC016A017B0120E030E040E85FE3F5
:100B4000C701B6010E94140F1816A4F020E030E08F
:100B500040E85FEBC701B6010E942D0E87FD1FC064
:100B600020E030E0A901C701B6010E94140F181659
:100B7000E4F406C0C12CD12C90E8E92E9FE3F92EB5
:100B800020E030E04FE753E4C701B6010E94180FA0
:100B90000E94310E888137D260E070E015C0C12C10
:100BA000D12C80E8E82E8FEBF82E60E070E0888191
:100BB0002AD220E030E04FE753E4C701B6010E949B
:100BC000180F90580E94310E8A811DD2CC82DD828E
:100BD000EE82FF82DF91CF91FF90EF90DF90CF9078
:100BE0000895E091A403F091A503F894178210866C
:100BF000118612867894E091A603F091A703F894E9
:100C0000178210861186128678940895CF93DF9309
:100C1000EC018B85823020F4F894CE0128DD01C0F0
:100C2000F8946F81788589859A857894DF91CF9142
:100C300008950F931F93CF93DF93EC01062F142F8A
:100C400062E0802FA4D162E0812FA1D1802F90E0BB
:100C5000FC01E857FE4FE491F0E0EE0FFF1FE65C69
:100C6000FE4FA591B491B983A883FC01E253FE4FD6
:100C700084918C83212F30E0F901E857FE4F949145
:100C8000E92FF0E0EE0FFF1FE65CFE4F4591549117
:100C90005B834A83F901E253FE4FE491ED831F82A7
:100CA000188619861A86EBE3FFE13197F1F7EC918C
:100CB000E82381E009F480E0FA0120819D819223FC
:100CC00009F082608E83BE01802F53DC8B87BE01CA
:100CD000812F4FDC2B8590E0820F911D8B87DF9158
:100CE000CF911F910F910895362F90E0FC01EC5E9B
:100CF000FD4F4491FC01E253FE4F2491FC01E85763
:100D0000FE4F9491992309F46BC0442309F455C014
:100D100050E0FA013197E231F10508F04EC0882722
:100D2000E758FF4F8F4F0C949D0F809180008F7775
:100D300007C0809180008F7D03C080918000877FF5
:100D4000809380003AC084B58F7702C084B58F7DD0
:100D500084BD33C08091B0008F7703C08091B00014
:100D60008F7D8093B00029C0809190008F7707C05D
:100D7000809190008F7D03C080919000877F809349
:100D800090001BC08091A0008F7707C08091A000C9
:100D90008F7D03C08091A000877F8093A0000DC04D
:100DA000809120018F7707C0809120018F7D03C043
:100DB00080912001877F80932001E92FF0E0EE0FE2
:100DC000FF1FE259FE4FA591B4918FB7F894EC91B3
:100DD000311103C020952E2301C02E2B2C938FBFE1
:100DE0000895009761F0FC0101900020E9F7319728
:100DF000AF01481B590BBC018AE594E061CA80E051
:100E000090E0089585E693E0ECCF8F929F92AF92A9
:100E1000BF920F931F93CF93DF93CDB7DEB7A19708
:100E20000FB6F894DEBF0FBECDBF19A2423008F452
:100E30004AE08E010F5D1F4F842E912CA12CB12C06
:100E4000A50194010E947B0FE62FB901CA01015050
:100E50001109EA3014F4E05D01C0E95CD801EC93BB
:100E6000232B242B252B61F7C801BBDFA1960FB6DE
:100E7000F894DEBF0FBECDBFDF91CF911F910F91D0
:100E8000BF90AF909F908F900895CF92DF92EF9296
:100E9000FF92CF93DF9397FF20C06B017C01E0911D
:100EA0005A04F0915B040190F081E02D6DE28AE537
:100EB00094E01995EC0166277727CB016C197D0921
:100EC0008E099F094AE0A1DF8C0F9D1FDF91CF9112
:100ED000FF90EF90DF90CF9008954AE0DF91CF919F
:100EE000FF90EF90DF90CF9090CFCF93DF9379DF9B
:100EF000EC0188DF8C0F9D1FDF91CF910895682F43
:100F00008DEB93E095CACF93C82F609111058DEBBF
:100F100093E08EDA88E090E0F2DF66E08DEB93E01C
:100F200087DA64E18DEB93E083DA60E08DEB93E0A8
:100F30007FDA6C2F8DEB93E07BDA61E08DEB93E051
:100F400077DA66E08DEB93E073DA86ED90E08C1B48
:100F50009109CF91D4CFCF93DF932091F9043091B1
:100F6000FA048217930760F0EC0188E693E039DF1A
:100F7000BE0180E090E04AE048DF44DF80E004C04A
:100F8000FC01E950FB4F8481DF91CF910895CF930D
:100F9000DF9390E0FC01E253FE4F2491FC01E857FF
:100FA000FE4F8491882361F190E0880F991FFC0126
:100FB000EC5AFE4FC591D491FC01E259FE4FA59128
:100FC000B491611109C09FB7F8948881209582235C
:100FD0008883EC912E230BC0623061F49FB7F894A4
:100FE0003881822F809583238883EC912E2B2C933C
:100FF0009FBF06C08FB7F894E8812E2B28838FBF40
:10100000DF91CF9108951F93CF93DF93182FEB01BA
:1010100061E0BDDF209711F460E004C0CF3FD1054F
:1010200031F461E0812FDF91CF911F915DCEE12FEF
:10103000F0E0EC5EFD4FE4914E2F50E0FA01319765
:10104000E231F10508F09CC08827E557FF4F8F4F2C
:1010500074C784B5806884BDC7BD97C084B58062FD
:1010600084BDC8BD92C0809180008068809380005C
:10107000D0938900C093880088C0809180008062EE
:1010800080938000D0938B00C0938A007EC08091B3
:101090008000886080938000D0938D00C0938C0086
:1010A00074C08091B00080688093B000C093B3009A
:1010B0006CC08091B00080628093B000C093B40097
:1010C00064C080919000806880939000D0939900D4
:1010D000C09398005AC080919000806280939000E5
:1010E000D0939B00C0939A0050C08091900088607C
:1010F00080939000D0939D00C0939C0046C0809147
:10110000A00080688093A0008091A0008F7B8093D6
:10111000A000D093A900C093A80037C08091A00080
:1011200080628093A000D093AB00C093AA002DC032
:101130008091A00088608093A000D093AD00C09300
:10114000AC0023C080912001806880932001D0935F
:101150002901C093280119C08091200180628093E9
:101160002001D0932B01C0932A010FC08091200150
:10117000886080932001D0932D01C0932C0105C07D
:10118000C038D1050CF04DCF47CFDF91CF911F91E3
:101190000895863308F0865390917B00282F28709D
:1011A000977F922B90937B008770806480937C0064
:1011B00080917A00806480937A0080917A0086FD25
:1011C000FCCF809178002091790090E0922B0895D7
:1011D0002FB7F89460912005709121058091220528
:1011E000909123052FBF08951F920F920FB60F9273
:1011F00011242F933F938F939F93AF93BF9380912D
:10120000200590912105A0912205B09123053091F0
:101210001F0523E0230F2D3720F40196A11DB11DDA
:1012200005C026E8230F0296A11DB11D20931F05BE
:101230008093200590932105A0932205B093230568
:1012400080911B0590911C05A0911D05B0911E0574
:101250000196A11DB11D80931B0590931C05A093C1
:101260001D05B0931E05BF91AF919F918F913F9146
:101270002F910F900FBE0F901F901895CF93DF9373
:1012800000D01F92CDB7DEB7789484B5826084BD5C
:1012900084B5816084BD85B5826085BD85B581607A
:1012A00085BD80916E00816080936E0010928100F8
:1012B00080918100826080938100809181008160B3
:1012C0008093810080918000816080938000809174
:1012D000B10084608093B1008091B0008160809300
:1012E000B000809191008260809391008091910084
:1012F0008160809391008091900081608093900044
:101300008091A10082608093A1008091A100816002
:101310008093A1008091A00081608093A0008091C3
:10132000210182608093210180912101816080935D
:1013300021018091200181608093200180917A00B9
:10134000846080937A0080917A00826080937A0032
:1013500080917A00816080937A0080917A00806821
:1013600080937A001092C100E0916A04F0916B04BE
:1013700002E00083E0916604F09167041082E0913E
:101380006804F09169048FEC808310927204E091FC
:101390006E04F0916F0416E01083E0916C04F091FC
:1013A0006D04808180618083E0916C04F0916D0414
:1013B000808188608083E0916C04F0916D0480816D
:1013C00080688083E0916C04F0916D0480818F7D52
:1013D000808388EC90E0A0E0B0E08093A803909335
:1013E000A903A093AA03B093AB031092AC0310928D
:1013F000AD031092AE031092AF031092B40388E2D3
:1014000092E073DDE091CD03F091CE030083E09193
:10141000C903F091CA031082E091CB03F091CC0391
:1014200080E180831092D503E091D103F091D20343
:101430001083E091CF03F091D0038081806180839D
:10144000E091CF03F091D003808188608083E091A8
:10145000CF03F091D003808180688083E091CF0337
:10146000F091D00380818F7D8083B2DEDC01CB01DF
:1014700088519C4FAF4FBF4F8093B9039093BA03ED
:10148000A093BB03B093BC03A3DEDC01CB01C296E7
:10149000A11DB11D8093B0039093B103A093B2033B
:1014A000B093B30360E084E172DD61E088E06FDD5A
:1014B00061E089E06CDD61E08BE069DD61E08AE09C
:1014C00066DD60E080E063DD60E081E060DD82EBAE
:1014D00092E09093070280930602809169008C60ED
:1014E00080936900E99A88E090E02FD5FC018BE0B9
:1014F00090E0918380838AE090E0938382831482DA
:10150000158216821782F093B603E093B50388E044
:1015100090E01BD5FC0188E090E09183808389E016
:1015200090E0938382831482158216821782F0934F
:10153000B803E093B7038CE090E007D58C0143E15A
:1015400062E177DB1093A7030093A6038CE090E0A1
:10155000FCD48C0143E062E06CDB1093A5030093A4
:10156000A4033FDB8AE0282E312C412C512C8DEB3B
:1015700093E00E94D901892B09F4F2C08DEB93E02E
:101580000E94B7019C014091F7045091F80441304A
:10159000510599F04230510561F1452B09F053C0D6
:1015A0008091110590E02817390709F781E090E054
:1015B0009093F8048093F704DACF215031093093E7
:1015C000FA042093F9042431310540F081E392E0DC
:1015D0008CDC1092F8041092F704C9CF1092100519
:1015E00010920F05E2E0F0E0F093F804E093F704C6
:1015F000BECF20910F0530911005A9014F5F5F4FBD
:101600005093100540930F05F901E950FB4F848377
:101610008091F9049091FA044817590708F4A7CF6C
:101620001092F8041092F70480E090E094DC90E0CF
:10163000FC013197E730F10508F06EC08827EE58BD
:10164000FF4F8F4F7AC482E692E04FDC90CF80E765
:1016500092E04BDC83E090E07EDC282F8170809369
:10166000130521FB882780F98093140522FB882726
:1016700080F98093150523FB222720F92093160576
:101680004BC080E892E031DC83E090E064DC282FFE
:1016900081708093170521FB882780F980931805B6
:1016A00022FB882780F98093190523FB222720F944
:1016B00020931A0531C08FE892E02DC08FE992E0A7
:1016C00014DC83E090E047DC682F70E080E090E07D
:1016D0004AE09BDB97DB83E090E03DDC882309F464
:1016E000ECC183E090E037DC843FB1F4E6C18CEAE2
:1016F00092E0FBDB83E090E02EDC882309F4E4C178
:1017000083E090E028DC843F39F4DEC18BEB92E08B
:1017100002C08AEC92E0E9DB00E010E08091F9047D
:101720009091FA040817190774F4C80114DC682FA3
:1017300070E080E090E040E168DB8CE293E051DB18
:101740000F5F1F4FEBCF8CED92E04BDB6091F90404
:101750007091FA04072E000C880B990B96DB52DB74
:1017600037DD0091B9031091BA032091BB0330918A
:10177000BC03061717072807390750F529DDDC01D8
:10178000CB0188519C4FAF4FBF4F8093B9039093CB
:10179000BA03A093BB03B093BC03609111058DEB1A
:1017A00093E00E94180285E090E0A9DB67E08DEBF2
:1017B00093E00E9418026AE08DEB93E00E94180209
:1017C00060E08DEB93E00E94180289EE90E097DBD9
:1017D00080911205882399F081E095DB40E050E08C
:1017E000BA018091B7039091B8039DD940E050E0D1
:1017F000BA018091B5039091B60395D95BC183E09E
:1018000082DB0091B5031091B603C090B703D0906E
:10181000B803DEDCA20191016ED3672B682B692B24
:1018200009F04FC080E0B5DC7C0181E0B2DC8B3F89
:1018300091058CF08CEE92E058DB2AE037ED43E224
:101840005FE3F8016481758186819781F1D2AB01F4
:10185000BC01C80115C0F9E5EF16F2E0FF069CF0E7
:101860008BE093E042DB2AE037ED43E25FE3F601F1
:101870006481758186819781DBD2AB01BC01C60191
:1018800052D9AFD9B5C08AE293E0ABDA80E081DC0F
:10189000BC01990F880B990BF8DA8EE293E0A1DA7C
:1018A00081E077DCBC01990F880B990BEEDA83E3BA
:1018B00093E097DA6091B40370E080E090E0E5DABD
:1018C000A1DA8091A6039091A7039C838B8300915A
:1018D000A4031091A5036090B5037090B603E09146
:1018E000B703F091B803FA83E98372DCC090B003C8
:1018F000D090B103E090B203F090B303C616D706C0
:10190000E806F90608F074C0D701C601C296A11D09
:10191000B11D8093B0039093B103A093B203B09331
:10192000B303F894C80172D96B017C018B819C814F
:101930006DD97894C9D12AE037ED43EA59E378D2DA
:101940004B015C01C701B601BFD12AE037ED43EA84
:1019500059E36ED26B017C0120E030E0A901C501A2
:10196000B4017BD187FF04C0B7FAB094B7F8B09444
:1019700020E030E0A901C701B6016FD187FF04C0A4
:10198000F7FAF094F7F8F094A7019601C501B401B5
:10199000FFD020E030E040EC5FE34AD22AE939E9A9
:1019A00049E15EE3F6D0AB01BC01705889819A81B0
:1019B000BAD8A5019401C701B601EAD020E030E011
:1019C00040EC5FE335D22AE939E949E15EE3E1D051
:1019D000AB01BC017058C301A6D8C80117D955DAAC
:1019E0008EE293E0FED98B819C8110D94EDA0ADA1F
:1019F00080E0CFDB7C0181E0CCDB8C018B3F91056B
:101A00004CF0E6DB6093AC037093AD038093AE03C0
:101A10009093AF03F9E5EF16F2E0FF064CF0D8DB48
:101A20006093A8037093A9038093AA039093AB03D8
:101A30004091A8035091A9036091AA037091AB0350
:101A40008091AC039091AD03A091AE03B091AF0330
:101A50002091B403481759076A077B07BCF021118E
:101A600010C0481B590B6A0B7B0B453051056105B3
:101A70007105B4F48AE393E038DA81E08093B4032B
:101A80000FC084179507A607B70754F0211108C0A7
:101A9000841B950BA60BB70B0597A105B10554F355
:101AA0000A3F11053CF498E5E91692E0F90614F4B2
:101AB0001092B4030E947F025ACD82E493E015DABB
:101AC000E1E0E093120528CE1092120583E593E041
:101AD00022CEEDEBF3E01382128248EE53E060E099
:101AE00070E044835583668377838AE192E0918333
:101AF000808325E331E03587248724E331E037878D
:101B0000268720E331E0318B208B21E331E0338BDA
:101B1000228B22E331E0358B248B26E331E0378BB7
:101B2000268B118E128E138E148EEAE5F4E013824A
:101B3000128244835583668377839183808385EC07
:101B400090E09587848784EC90E09787868780EC87
:101B500090E0918B808B81EC90E0938B828B82EC78
:101B600090E0958B848B86EC90E0978B868B118E22
:101B7000128E138E148EE7EFF4E08FE5828F118EB4
:101B8000108E138212821182108210921205089513
:101B90005058BB27AA270ED00DC1FED030F003D17C
:101BA00020F031F49F3F11F41EF4F3C00EF4E095E1
:101BB000E7FBE9C0E92F0FD180F3BA17620773077B
:101BC0008407950718F071F49EF527C10EF4E0958F
:101BD0000B2EBA2FA02D0B01B90190010C01CA01E7
:101BE000A0011124FF27591B99F0593F50F4503E92
:101BF00068F11A16F040A22F232F342F4427585F84
:101C0000F3CF469537952795A795F0405395C9F79B
:101C10007EF41F16BA0B620B730B840BBAF0915053
:101C2000A1F0FF0FBB1F661F771F881FC2F70EC0F2
:101C3000BA0F621F731F841F48F4879577956795C5
:101C4000B795F7959E3F08F0B3CF9395880F08F0AE
:101C50009927EE0F97958795089571D008F481E044
:101C6000089504D06894B111D9C00895BCD088F00B
:101C70009F5790F0B92F9927B751A0F0D1F0660F78
:101C8000771F881F991F1AF0BA95C9F712C0B13093
:101C900081F0C3D0B1E00895C0C0672F782F8827A6
:101CA000B85F39F0B93FCCF3869577956795B395D2
:101CB000D9F73EF490958095709561957F4F8F4F41
:101CC0009F4F0895E89409C097FB3EF49095809546
:101CD000709561957F4F8F4F9F4F9923A9F0F92FF2
:101CE00096E9BB279395F695879577956795B79570
:101CF000F111F8CFFAF4BB0F11F460FF1BC06F5F56
:101D00007F4F8F4F9F4F16C0882311F096E911C067
:101D1000772321F09EE8872F762F05C0662371F088
:101D200096E8862F70E060E02AF09A95660F771F9C
:101D3000881FDAF7880F9695879597F90895990F78
:101D40000008550FAA0BE0E8FEEF16161706E80785
:101D5000F907C0F012161306E407F50798F0621BA6
:101D6000730B840B950B39F40A2661F0232B242B7B
:101D7000252B21F408950A2609F4A140A6958FEF9A
:101D8000811D811D089597F99F6780E870E060E0EC
:101D900008959FEF80EC089500240A941616170604
:101DA00018060906089500240A941216130614064C
:101DB00005060895092E0394000C11F4882352F0AF
:101DC000BB0F40F4BF2B11F460FF04C06F5F7F4F67
:101DD0008F4F9F4F089557FD9058440F551F59F04E
:101DE0005F3F71F04795880F97FB991F61F09F3F08
:101DF00079F087950895121613061406551FF2CF31
:101E00004695F1DF08C0161617061806991FF1CF80
:101E100086957105610508940895E894BB276627A7
:101E20007727CB0197F908958ADF08F48FEF08959B
:101E30000BD0C0CFB1DF28F0B6DF18F0952309F042
:101E4000A2CFA7CF1124EACFC6DFA0F3959FD1F38D
:101E5000950F50E0551F629FF001729FBB27F00D58
:101E6000B11D639FAA27F00DB11DAA1F649F6627AD
:101E7000B00DA11D661F829F2227B00DA11D621FFC
:101E8000739FB00DA11D621F839FA00D611D221FB6
:101E9000749F3327A00D611D231F849F600D211D9A
:101EA000822F762F6A2F11249F5750408AF0E1F03D
:101EB00088234AF0EE0FFF1FBB1F661F771F881F86
:101EC00091505040A9F79E3F510570F05CCFA6CFCE
:101ED0005F3FECF3983EDCF3869577956795B79571
:101EE000F795E7959F5FC1F7FE2B880F911D96959B
:101EF000879597F90895A1E21A2EAA1BBB1BFD0135
:101F00000DC0AA1FBB1FEE1FFF1FA217B307E407D8
:101F1000F50720F0A21BB30BE40BF50B661F771F30
:101F2000881F991F1A9469F7609570958095909510
:101F30009B01AC01BD01CF010895EE0FFF1F881F6B
:101F40008BBF0790F691E02D1994CF93DF938230E9
:101F5000910510F482E090E0E0912605F0912705CC
:101F600020E030E0C0E0D0E0309711F140815181B5
:101F700048175907C0F04817590761F482819381C7
:101F8000209719F09B838A832BC090932705809319
:101F9000260526C02115310519F04217530718F4FC
:101FA0009A01BE01DF01EF010280F381E02DDCCF59
:101FB0002115310509F1281B390B2430310590F426
:101FC00012968D919C9113976115710521F0FB017B
:101FD0009383828304C09093270580932605FD0197
:101FE000329644C0FD01E20FF31F8193919322507A
:101FF00031092D933C933AC0209124053091250559
:10200000232B41F4209112023091130230932505C5
:1020100020932405209110023091110221153105E1
:1020200041F42DB73EB74091140250911502241B84
:10203000350BE0912405F0912505E217F307A0F494
:102040002E1B3F0B2817390778F0AC014E5F5F4F0E
:102050002417350748F04E0F5F1F50932505409316
:1020600024058193919302C0E0E0F0E0CF01DF917D
:10207000CF9108950F931F93CF93DF93009709F4A7
:102080008CC0FC01329713821282009126051091B8
:1020900027050115110581F420813181820F931FDD
:1020A00020912405309125052817390779F5F093FB
:1020B0002505E093240571C0D80140E050E0AE173B
:1020C000BF0750F412962D913C911397AD01211545
:1020D000310509F1D901F3CF9D01DA013383228360
:1020E00060817181860F971F8217930769F4EC0155
:1020F00028813981260F371F2E5F3F4F3183208380
:102100008A819B8193838283452B29F4F093270551
:10211000E093260542C01396FC93EE931297ED01CF
:10212000499159919E01240F351FE217F30771F46D
:1021300080819181840F951F029611969C938E93B6
:102140008281938113969C938E931297E0E0F0E046
:10215000D80112968D919C911397009719F0F80170
:102160008C01F6CF8D919C9198012E5F3F4F820F8D
:10217000931F20912405309125052817390769F40C
:10218000309729F4109227051092260502C0138279
:1021900012821093250500932405DF91CF911F91A2
:0821A0000F910895F894FFCFA0
:1021A8005F015F015F015F015F015F015F015F0127
:1021B8000000280580000000000018026001A80146
:1021C8005E02D901B701CB015374617274696E67FD
:1021D800005265636569766564206D657373616730
:1021E80065206C656E6774682067726561746572D6
:1021F800207468616E206275666665722073697AFC
:102208006500496E76616C69642073746174650059
:1022180053746F72616765206D65737361676500DC
:10222800537570706C79206D6573736167650052C2
:102238006164696174696F6E20616C6572740053C2
:10224800746F70204D6573736167650052657375AF
:102258006D65204D657373616765005374617475AE
:1022680073206D6573736167650048656172746298
:10227800656174204D657373616765004D6573739F
:10228800616765204C656E6774682000524947484D
:1022980054204F564552212121212121212121213C
:1022A80052525252525252525252004C45465420A7
:1022B8004F564552212121212121212121214C4CF8
:1022C8004C4C4C4C4C4C4C4C4C004C3A2000205242
:1022D8003A20002074726967200059555021212145
:1022E800210053746F70706564206D6F76656D653D
:1022F8006E7400526573756D696E67206D6F7665D3
:102308006D656E74000D0A007265717565737420D1
:10231800666F72206D657373616765206279746595
:10232800206265796F6E6420656E64206F66206D2B
:08233800657373616765200005
:00000001FF
